{
  "contractName": "SistemaVotacao",
  "abi": [
    {
      "constant": true,
      "inputs": [],
      "name": "nome",
      "outputs": [
        {
          "name": "",
          "type": "string"
        }
      ],
      "payable": false,
      "stateMutability": "view",
      "type": "function",
      "signature": "0x2deb124b"
    },
    {
      "constant": true,
      "inputs": [],
      "name": "votosBolsonaro",
      "outputs": [
        {
          "name": "",
          "type": "uint256"
        }
      ],
      "payable": false,
      "stateMutability": "view",
      "type": "function",
      "signature": "0x9507fdd4"
    },
    {
      "constant": true,
      "inputs": [],
      "name": "votosLula",
      "outputs": [
        {
          "name": "",
          "type": "uint256"
        }
      ],
      "payable": false,
      "stateMutability": "view",
      "type": "function",
      "signature": "0xdcd0b58c"
    },
    {
      "constant": false,
      "inputs": [
        {
          "name": "_numero",
          "type": "uint256"
        }
      ],
      "name": "validaVoto",
      "outputs": [],
      "payable": true,
      "stateMutability": "payable",
      "type": "function",
      "signature": "0x20df425d"
    },
    {
      "constant": true,
      "inputs": [],
      "name": "qntVotosLula",
      "outputs": [
        {
          "name": "",
          "type": "string"
        }
      ],
      "payable": false,
      "stateMutability": "view",
      "type": "function",
      "signature": "0x3d7e10f7"
    },
    {
      "constant": true,
      "inputs": [],
      "name": "qntVotosBolsonaro",
      "outputs": [
        {
          "name": "",
          "type": "string"
        }
      ],
      "payable": false,
      "stateMutability": "view",
      "type": "function",
      "signature": "0x25cda8cd"
    },
    {
      "constant": true,
      "inputs": [],
      "name": "atualVencedor",
      "outputs": [
        {
          "name": "",
          "type": "string"
        }
      ],
      "payable": false,
      "stateMutability": "view",
      "type": "function",
      "signature": "0x9257afe1"
    }
  ],
  "bytecode": "0x60806040526000805560006001556040805190810160405280601a81526020017f53697374656d6120566f746163616f20507265736964656e74650000000000008152506002908051906020019061005892919061006b565b5034801561006557600080fd5b50610110565b828054600181600116156101000203166002900490600052602060002090601f016020900481019282601f106100ac57805160ff19168380011785556100da565b828001600101855582156100da579182015b828111156100d95782518255916020019190600101906100be565b5b5090506100e791906100eb565b5090565b61010d91905b808211156101095760008160009055506001016100f1565b5090565b90565b6106ca8061011f6000396000f3fe608060405260043610610083576000357c0100000000000000000000000000000000000000000000000000000000900463ffffffff16806320df425d1461008857806325cda8cd146100b65780632deb124b146101465780633d7e10f7146101d65780639257afe1146102665780639507fdd4146102f6578063dcd0b58c14610321575b600080fd5b6100b46004803603602081101561009e57600080fd5b810190808035906020019092919050505061034c565b005b3480156100c257600080fd5b506100cb61039b565b6040518080602001828103825283818151815260200191508051906020019080838360005b8381101561010b5780820151818401526020810190506100f0565b50505050905090810190601f1680156101385780820380516001836020036101000a031916815260200191505b509250505060405180910390f35b34801561015257600080fd5b5061015b6103ad565b6040518080602001828103825283818151815260200191508051906020019080838360005b8381101561019b578082015181840152602081019050610180565b50505050905090810190601f1680156101c85780820380516001836020036101000a031916815260200191505b509250505060405180910390f35b3480156101e257600080fd5b506101eb61044b565b6040518080602001828103825283818151815260200191508051906020019080838360005b8381101561022b578082015181840152602081019050610210565b50505050905090810190601f1680156102585780820380516001836020036101000a031916815260200191505b509250505060405180910390f35b34801561027257600080fd5b5061027b61045d565b6040518080602001828103825283818151815260200191508051906020019080838360005b838110156102bb5780820151818401526020810190506102a0565b50505050905090810190601f1680156102e85780820380516001836020036101000a031916815260200191505b509250505060405180910390f35b34801561030257600080fd5b5061030b61052d565b6040518082815260200191505060405180910390f35b34801561032d57600080fd5b50610336610533565b6040518082815260200191505060405180910390f35b600d81148061035b5750601681145b151561036657600080fd5b600d811415610385576000808154809291906001019190505550610398565b6001600081548092919060010191905055505b50565b60606103a8600154610539565b905090565b60028054600181600116156101000203166002900480601f0160208091040260200160405190810160405280929190818152602001828054600181600116156101000203166002900480156104435780601f1061041857610100808354040283529160200191610443565b820191906000526020600020905b81548152906001019060200180831161042657829003601f168201915b505050505081565b6060610458600054610539565b905090565b606060015460005411156104a8576040805190810160405280600481526020017f4c756c6100000000000000000000000000000000000000000000000000000000815250905061052a565b60015460005410156104f1576040805190810160405280600981526020017f426f6c736f6e61726f0000000000000000000000000000000000000000000000815250905061052a565b6040805190810160405280600981526020017f456d70617461646f73000000000000000000000000000000000000000000000081525090505b90565b60015481565b60005481565b60606000821415610581576040805190810160405280600181526020017f30000000000000000000000000000000000000000000000000000000000000008152509050610699565b600082905060005b6000821415156105af578080600101915050600a828115156105a757fe5b049150610589565b6060816040519080825280601f01601f1916602001820160405280156105e45781602001600182028038833980820191505090505b50905060008290505b600086141515610691576001810390506000600a808881151561060c57fe5b0402870360300190506000817f010000000000000000000000000000000000000000000000000000000000000002905080848481518110151561064b57fe5b9060200101907effffffffffffffffffffffffffffffffffffffffffffffffffffffffffffff1916908160001a905350600a8881151561068757fe5b04975050506105ed565b819450505050505b91905056fea165627a7a72305820f472e52427b8dbbde05d53af8312b343c537d2a8b29459921e24d62f76f8a92d0029",
  "source": "pragma solidity ^0.5.0;\r\n\r\ncontract SistemaVotacao {\r\n\r\n    uint public votosLula = 0;\r\n    uint public votosBolsonaro = 0;\r\n    string public nome = \"Sistema Votacao Presidente\";\r\n\r\n    // recebe o voto do votante e computa na variável respectiva\r\n    function validaVoto(uint _numero) public payable {\r\n        require(_numero == 13 || _numero == 22);\r\n        if(_numero == 13) votosLula++;\r\n        else votosBolsonaro++;\r\n    }\r\n\r\n    // getters criados para receber a quantidade de votos convertidos para uma string\r\n    function qntVotosLula() external view returns (string memory) {\r\n        return uint2str(votosLula);\r\n    }\r\n\r\n    function qntVotosBolsonaro() external view returns (string memory) {\r\n        return uint2str(votosBolsonaro);\r\n    }\r\n\r\n    // retorna aquele candidato com maior quantidade de votos no momento\r\n    function atualVencedor() external view returns (string memory) {\r\n        if(votosLula > votosBolsonaro) return(\"Lula\");\r\n        else if(votosLula < votosBolsonaro) return(\"Bolsonaro\");\r\n        else return(\"Empatados\");\r\n    }\r\n\r\n    // função para converter inteiro em string\r\n    function uint2str(uint _i) internal pure returns (string memory _uintAsString) {\r\n        if (_i == 0) {\r\n            return \"0\";\r\n        }\r\n        uint j = _i;\r\n        uint len;\r\n        while (j != 0) {\r\n            len++;\r\n            j /= 10;\r\n        }\r\n        bytes memory bstr = new bytes(len);\r\n        uint k = len;\r\n        while (_i != 0) {\r\n            k = k-1;\r\n            uint8 temp = (48 + uint8(_i - _i / 10 * 10));\r\n            bytes1 b1 = bytes1(temp);\r\n            bstr[k] = b1;\r\n            _i /= 10;\r\n        }\r\n        return string(bstr);\r\n    }\r\n}\r\n",
  "sourcePath": "/mnt/c/Users/Thiag/Desktop/sistemavotacao/src/contratos/SistemaVotacao.sol",
  "compiler": {
    "name": "solc",
    "version": "0.5.0+commit.1d4f565a.Emscripten.clang"
  },
  "schemaVersion": "3.0.2",
  "updatedAt": "2022-12-03T21:05:38.650Z",
  "devdoc": {
    "methods": {}
  },
  "userdoc": {
    "methods": {}
  }
}